:10056200477265736B61210D0A005072656B6F7281
:100572006163656E6A65210D0A00533A2031350DBB
:100582000A00533A2031340D0A00533A2031330D18
:100592000A00533A2031320D0A00533A2031310D0C
:1005A2000A00533A2031300D0A00533A20390D0A1D
:1005B20000533A20380D0A00533A20370D0A0053EF
:1005C2003A20360D0A00533A20350D0A00533A20DC
:1005D200340D0A00533A20330D0A00533A20320DEB
:1005E2000A00533A20310D0A00533A20300D0A0016
:10078A00013A01014A01012D01012601014101013C
:10079A003B01014B01012E01012801014201013CEB
:1007AA0001014C01012F01012A01014301013D010F
:1007BA00014D01013001012B010144010124000115
:1007CA0025000127000129000321FF05620334FFE8
:1007DA00056C0149000131000138000245000001A1
:0E07EA00330F013900013200012C00013700ED
:10002600E556642860030200E2E55764496003026E
:1000360000E2E558645A60030200E2E559644C6048
:10004600030200E2E55A644160030200E2E55B64F4
:100056005A60030200E2E55C642960030200E2F5EF
:1000660045F54674572546F8E66429600A0546E5CF
:100076004670F0054580ECD3E5469408E545648076
:100086009480400B85343E85353F8536408041E47B
:10009600F545F546F54775480174562548F8E6FFD7
:1000A60064296019744E2546F8A6070546E546708C
:1000B6000205450548E54870E0054780DC744E2595
:1000C60046F8760A753E00753F0075404E7532015A
:1000D6001200037B007A00794E020308E556642875
:1000E6006003020195E55764556003020195E558E2
:1000F600644C6003020195E5596441600302019571
:10010600E55A645A6003020195E55B6429600302BF
:100116000195F545F54674572546F8E66429600AC3
:100126000546E54670F0054580ECD3E5469408E5BE
:100136004564809480400B85343E85353F85364046
:100146008041E4F545F546F547754801745625485E
:10015600F8E6FF64296019746A2546F8A60705467D
:10016600E546700205450548E54870E0054780DC30
:10017600746A2546F8760A753E00753F0075406A32
:100186007539011200037B007A00796A020308E5DB
:10019600566428600302030DE557645360030203A7
:1001A6000DE5586454600302030DE55964296003A4
:1001B60002030DF545F54674572546F8E6642960B1
:1001C6000A0546E54670F0054580ECD3E5469408F9
:1001D600E54564809480400B85343E85353F853601
:1001E600408067E533D3940F5007E533C39400503E
:1001F6000B85213E85223F852340804EE533B40F93
:100206000B753EFF753F0575407C803EE533B40EA9
:100216000B753EFF753F05754084802EE533B40DA2
:100226000B753EFF753F0575408C801EE533B40C9B
:100236000B753EFF753F05754094800EE533B40B94
:1002460009753EFF753F0575409CE533B40A0C758C
:100256003EFF753F057540A40202FFE533B4090C65
:10026600753EFF753F057540AC0202FFE533B408E5
:100276000B753EFF753F057540B3807DE533B407CA
:100286000B753EFF753F057540BA806DE533B406C4
:100296000B753EFF753F057540C1805DE533B405BE
:1002A6000B753EFF753F057540C8804DE533B404B8
:1002B6000B753EFF753F057540CF803DE533B403B2
:1002C6000B753EFF753F057540D6802DE533B402AC
:1002D6000B753EFF753F057540DD801DE533B401A6
:1002E6000B753EFF753F057540E4800DE5337009DB
:1002F600753EFF753F057540EB120003AB3EAA3F06
:10030600A940120862804AE556B42819E557B44355
:1003160014E558B44C0FE559B4520AE55AB4290508
:10032600120003802CE556B4281EE557B44919E59A
:1003360058B44E14E559B4490FE55AB4540AE55B6E
:10034600B42905120708800985213E85223F8523A9
:1003560040AB3EAA3FA940120368F599E4F556F56D
:0203660038223B
:0300230002067E54
:10067E00C0E0C0F0C083C082C0D075D000C000C042
:10068E0001C002C003C004C005C006C007309833C5
:10069E00C298859908E508B4280375380074562564
:1006AE0038F8A608E508B42903120026AF38EF3350
:1006BE0095E0FEEF2401FFE43EFE7C007D14120364
:0306CE00AE8D38B6
:1006D100309919C29974012540F540E4353FF53F41
:1006E100AB3EFAA9401203686002F599D007D00623
:1006F100D005D004D003D002D001D000D0D0D08218
:07070100D083D0F0D0E032FC
:03001B000204D20A
:1004D200C0E0C0D0758D4C758B010549E549B46407
:1004E20006754900753101A280E433F52DB54A0E37
:1004F2000524E524D394044008852D3A8000752410
:1005020000852D4AA281E433F52EB54B0E0525E573
:1005120025D394044008852E3B8000752500852E46
:100522004BA282E433F52FB54C0E0527E527D39471
:10053200044008852F3C8000752700852F4CA2833C
:10054200E433F530B54D0E0529E529D3940440086E
:1005520085303D800075290085304DD0D0D0E03205
:1004390075A0FF7580FF758780759850759B1C7531
:100449009AFDD2AFD2AC758D4C758B01758910D2DE
:10045900ABD28EE4F549208009E53770057539017D
:10046900800A208107E537700375320120820875FB
:100479002C01E4F5A08009208306E4F52C75A0FF82
:10048900E53160D2E52C7002F537E533D3940040AD
:1004990012E539600E753701E52C60281533E4F54E
:1004A900398021E533C3940F5012E532600E753758
:1004B90001E52C600F0533E4F532800875A0FFE4EF
:0904C900F52CF537E4F531808DC6
:0708F2007590E075B0F922DA
:1008A600E58954F04401F589E4FF758CEEE4F58A98
:0B08B600D28C308DFDC28D0FBFC8EF4B
:0108C1002214
:0608DE00D292C293C2B2E7
:0E08E400758CFF758AD2D28C308DFDC28D22AC
:0E08C200C2B3D2B2C290C291C292D293C2B25D
:0E08D000758CF8758ACDD28C308DFDC28D22CC
:100708001208F21208A6C2B3D2B2C290C29112085D
:10071800DEC2B3D2B2C290C291D292C293C2B20028
:10072800C2B3D2B2D290C291C2921208E0C2B3D27E
:10073800B2C290C291C292C293C2B200C2B3D2B244
:10074800D290D291D292D293C2B21208E4C2B3D25A
:10075800B2C290C291C292C293C2B2001208C2122F
:1007680008D0C2B3D2B2C290C291C292C293C2B2EE
:1007780000C2B3D2B2C290D2911208DE1208D0D20F
:020788009422B9
:10000300C2B3D2B2C290C291C292C293C2B2001220
:0500130008C20208D044
:05083E009290AF041DC3
:100843007401A805088002C333D8FC5FFFAE05A876
:0E08530006088002C313D8FC24FF9200A20006
:010861002274
:1007F900AC07D2B3D2B27D0712084312083E9291D8
:10080900AF041D1208439292AF041D12084392933C
:10081900C2B200D2B2AF041D12084312083E92912F
:10082900AF041D1208439292AF041D12084392931C
:05083900C2B20208E458
:060862008B098A0A890BD4
:10086800E4F50CAB09AA0AA90B850C827583001262
:0C0878000381FF60071207F9050C80E700
:010884002251
:10088500C2B3D2B2D290D291C292C293C2B200D2B6
:10089500B2C290C291C292C293C2B21208D00208EB
:0108A500D082
:030000000205F204
:0C05F200787FE4F6D8FD758171020639AF
:10036800BB010689828A83E0225002E722BBFE0293
:09037800E32289828A83E49322C6
:10038100BB010CE58229F582E5833AF583E0225031
:1003910006E92582F8E622BBFE06E92582F8E2227B
:0D03A100E58229F582E5833AF583E4932295
:1003AE00C2D5EC30E709B2D5E4C39DFDE49CFCEE6A
:1003BE0030E715B2D5E4C39FFFE49EFE1203E4C3FB
:1003CE00E49DFDE49CFC80031203E430D507C3E4F6
:0603DE009FFFE49EFE22D9
:1005FE00020439E493A3F8E493A34003F68001F2D6
:10060E0008DFF48029E493A3F85407240CC8C333FD
:10061E00C4540F4420C8834004F456800146F6DFCC
:10062E00E4800B010204081020408090078AE47ECB
:10063E00019360BCA3FF543F30E509541FFEE493C1
:10064E00A360010ECF54C025E060A840B8E493A388
:10065E00FAE493A3F8E493A3C8C582C8CAC583CAB3
:10066E00F0A3C8C582C8CAC583CADFE9DEE780BE6B
:0107F8000000
:1003E400BC000BBE0029EF8DF084FFADF022E4CCFD
:1003F400F875F008EF2FFFEE33FEEC33FCEE9DECC6
:10040400984005FCEE9DFE0FD5F0E9E4CEFD22ED0B
:10041400F8F5F0EE8420D21CFEADF075F008EF2F55
:10042400FFED33FD4007985006D5F0F222C398FD46
:050434000FD5F0EA22E3
:00000001FF
